S0250000505458327878782D435553544F4D2D4E46435F464F52554D5F4E4445462E73726563F9
S31500000000A06B0020CD610100D95E0100DD61010019
S31500000010DD610100DD610100DD610100DD610100DE
S31500000020000000000000000000000000DD6101008B
S31500000030DD61010000000000DD610100DD610100FD
S31500000040E73E0100873E0100653F0100AD3F01002C
S31500000050AB310100D3300100AF320100073301009C
S31100000060114A0100ED540100ED540100AE
S3150000006CFC78010004790100D4820100DC820100D5
S3150000007C54E4010058E401002900021E5A07280A1C
S3150000008C005F0A09062600000000000000000000C0
S3150000009C000000000000000000000000000000004E
S315000000AC00000000000000002900021C1B03280AA7
S315000000BC00592C0914201300000000000000000059
S315000000CC000000000000000000000000000000001E
S315000000DC00000000000000002100021C1B03280A7F
S315000000EC0059340414200900000000000000000030
S315000000FC00000000000000000000000000000000EE
S3150000010C00000000000000002100021C1B02280A4F
S3150000011C0059340C142004000000000000000000FC
S3150000012C00000000000000000000000000000000BD
S3150000013C000000000000000029001E04280A000E22
S3150000014C0000DF0209034900000000000000000067
S3150000015C00000000000092000000000000000000FB
S3150000016C000000000000000029001D04280A000EF3
S3150000017C000059140924490000000000000000008A
S3150000018C00000000000092000000000000000000CB
S3150000019C000000000000000021001D04280A000ECB
S315000001AC000059240424490000000000000000004F
S315000001BC000000000000920000000000000000009B
S315000001CC000000000000000021001D04280A000E9B
S315000001DC0000593400224900000000000000000015
S315000001EC000000000000920000000000000000006B
S315000001FC00000000000000002100171A0230010068
S3150000020C1F060C140049000000000000000000004E
S3150000021C000000000092000000000000000000003A
S3150000022C00000000000000002100171A0130010038
S3150000023C1F060C150049000000000000000000001D
S3150000024C000000000092000000000000000000000A
S3150000025C00000000000000002500021D59030008E4
S3150000026C00401F2D041400000000000000000000D8
S3150000027C00000000000092000000000000000000DA
S3150000028C0000000000000000321024B81A03000021
S3150000029C321033B91A030000321025BA080F0000C9
S315000002AC3A1035276820000B000000003210352765
S315000002BC482000010000000032103523A440000342
S315000002CC0000000059B103000000001932050A10A5
S315000002DC50030000321024B72B352FB00000171A2C
S315000002EC01A00000911F0603148005007159B1008E
S315000002FC0300000019324A62788EA2B4C5D4E1EC30
S3150000030CF4FAFEFFFEFAF4ECE1D4C5B4A28E7862E0
S3150000031C4A32190054E5010000000000C0E6010055
S3150000032C0B040C040D040E04000000000000000079
S3150000033C48E501005CE60100000100000000000039
S3150000034C0000000000000000D8E5010000010000DC
S3150000035C0000000000000000000000000000080083
S3150000036C0000000000000000000000000000100863
S3150000037C0000000000000000000000004C030020FC
S3150000038C00000000F46C00205C6D0020C46D0020A1
S3150000039C000000000000000000000000000000004B
S315000003AC000000000000000000000000000000003B
S315000003BC000000000000000000000000000000002B
S311000003CC0000000000000000000000001F
S315000003D80348044B834202D0034B03B118477047C6
S315000003E8980300209803002000000000064B0749E8
S315000003F8C91A891048BF0131491003D0044B0BB103
S3150000040801481847704700BF98030020980300204A
S315000004180000000010B5064C237843B9FFF7D8FF53
S31500000428044B13B10448AFF300800123237010BDB9
S31500000438B86B00200000000004A2000108B5054BB7
S315000004481BB105490548AFF30080BDE80840FFF732
S31500000458CDBF00BF00000000BC6B002004A2000155
S3150000046880B5ADF52F6D00AF07F52F63A3F52D63A6
S31500000478184640F68C231A46002116F0E9FD07F5C2
S315000004882F63A3F6EC231A46002313605360936088
S31500000498D36013615361936107F52F63A3F52F6347
S315000004A800221A805D4800F08BFE5D4B1B681946DA
S315000004B85C4800F085FE594800F082FE5A4B1968E0
S315000004C804231A4607F6AC23184616F0D1FD042372
S315000004D8A7F8EC3A07F52F63A3F6EC2307F6AC2248
S315000004E85A60B7F8EC2A07F52F63A3F6EC231A81AE
S315000004F8002207F52F63A3F6EC239A72002207F56C
S315000005082F63A3F6EC23DA72002207F52F63A3F60E
S31500000518EC231A73022207F52F63A3F6EC235A730A
S315000005283A1D07F12003114618460AF01DFE034638
S31500000538A7F8EE3AB7F8EE3A002B3AD13B4800F066
S315000005483FFE07F1200318460AF080FE0346A7F887
S31500000558EE3AB7F8EE3A002B24D1354800F030FED3
S3150000056807F12003184600F0D7FE0346A7F8EE3A2F
S31500000578B7F8EE3A002B0ED107F12003184600F023
S3150000058865F80346A7F8EE3AB7F8EE3A1946294849
S3150000059800F016FE13E0B7F8EE3A1946264800F0C2
S315000005A80FFE0CE0B7F8EE3A1946244800F008FEAC
S315000005B805E0B7F8EE3A1946214800F001FE07F5BE
S315000005C82F63A3F52F6300221A7007F52F63A3F58F
S315000005D82F6300225A703A4607F12003114618463F
S315000005E80AF0E2FE07F1200318460AF08FFE0346DA
S315000005F8A7F8EE3AB7F8EE3A002B03D1114800F007
S31500000608DFFD05E0B7F8EE3A19460F4800F0D8FDC9
S315000006180023184607F52F67BD4680BD0C790100F3
S315000006282C0000204C790100300000208079010060
S31500000638A8790100D8790100087A01004C7A0100EE
S31500000648847A0100C07A0100E87A010080B586B094
S3150000065800AF78600123FB8200237B7500233B8271
S315000006680023FB607B68002B00F09F8007F10C03DA
S31500000678194678680BF0C4FA0346FB82FB8A002BFE
S3150000068840F0908000233B7407F110031946786800
S315000006980AF030FF0346FB82FB8A002B0AD17B7CDB
S315000006A8062B02D100237B7504E07B7C002B01D04E
S315000006B806237B75FB8A002B61D17B7D072B57D8D8
S315000006C801A252F823F000BFF1060000030700005C
S315000006D8170700002B0700003F070000510700001E
S315000006E8630700008507000007F1150319467868B7
S315000006F800F066F80346FB8241E0FA6807F1150345
S315000007081946786800F0C4F80346FB8237E0FA68B1
S3150000071807F115031946786800F050F90346FB827D
S315000007282DE0FA6807F115031946786800F0D0F944
S315000007380346FB8223E007F115031946786800F0A3
S315000007486FFA0346FB821AE007F115031946786823
S3150000075800F09AFA0346FB8211E007F1100207F14E
S3150000076815031946786800F0C5FA0346FB8206E0C9
S31500000778104800F025FD07237B7500E000BFFB8AC3
S31500000788B3F5857F03D106237B750023FB82FB8A9D
S31500000798002B07D17B7D072B04D0074B1B68002B4A
S315000007A83FF470AF054800F00BFDFB8A1846183772
S315000007B8BD4680BD247B0100D46B00204C7B010024
S315000007C880B5AEB000AF786039600123A7F8B630BF
S315000007D807F10C03A8220021184616F039FC7B689D
S315000007E8002B4BD03B68002B48D001237B73012399
S315000007F83B736423BB6101237B770123BB77052306
S31500000808FB77012387F82130012387F82230052357
S3150000081887F82330012387F82530012387F82C3001
S31500000828052387F82D30012387F82F30012387F811
S315000008383130052387F8303000233B74002387F8CE
S31500000848483007F10C03194678680CF0FDFB03469F
S31500000858A7F8B630B7F8B630002B06D13B680122A8
S315000008681A70094800F0ACFC08E03B6807221A70C9
S31500000878B7F8B6301946054800F0A2FCB7F8B63006
S315000008881846B837BD4680BD6C7B0100A87B0100C1
S3150000089880B586B000AFF860B9607A600123FB8244
S315000008A8FB68002B79D0BB68002B76D07B68002BC1
S315000008B873D007F1100302220021184616F0C8FB70
S315000008C801233B7407F110031946F8680AF012FE73
S315000008D80346FB82FB8A002B57D17B7C042B4DD821
S315000008E801A252F823F000BF050900001109000013
S315000008F82309000069090000530900000A23194664
S31500000908F8680AF0BDFE48E0264800F059FC0523C1
S315000009181946F8680AF0B4FE3FE0234800F050FC98
S3150000092800237B7507E07B7D1946F86800F016FB07
S315000009387B7D01337B757A7D7B68D3F800339A42D9
S31500000948F1D3BB6802221A7027E0184800F038FC79
S315000009580021F86800F002FBBB6802221A701CE04E
S31500000968134800F02DFC7B68D3F84C331946F86819
S3150000097800F0F4FABB6803221A700EE0BB6807227F
S315000009881A700C4800F01CFC07E0BB6807221A70B6
S31500000998FB8A1946084800F013FCFB8A18461837E4
S315000009A8BD4680BDE07B01001C7C0100487C01003F
S315000009B8A47C0100E07C0100147D010080B590B0A4
S315000009C804AFF860B9607A600123FB8507F1140368
S315000009D800221A605A609A60DA601A82FB68002B55
S315000009E86CD0BB68002B69D07B68002B66D07B680F
S315000009F8BB6200233B75BB6ADB7D03F00103DBB2F8
S31500000A08002B01D002233B75BB6ADB7D03F0020392
S31500000A18DBB2002B01D003233B75BB6ADB7D03F0F9
S31500000A280403DBB2002B09D000237B75BB6A1B7855
S31500000A38012B01D10023BB7504233B75BB6ADB7D03
S31500000A4803F01003DBB2002B01D005233B75BB6A0C
S31500000A58DB7D03F00803DBB2002B01D006233B75D0
S31500000A686B4607F11C0207CA03C31A8007F1140371
S31500000A780CCB0021F8680BF0E3F80346FB85FB8DE9
S31500000A88002B0AD1104800F09BFB0021F86800F003
S31500000A9865FABB6803221A7010E0FB8D19460B48ED
S31500000AA800F08EFBFB8D184600F05CFB0346FB85C9
S31500000AB8FB8D002B02D1BB6805221A70FB8D1846E8
S31500000AC83037BD4680BD00BF547D01007C7D0100E6
S31500000AD880B5ADF5856D00AF07F58563A3F21C43B8
S31500000AE8186007F58563A3F58463196007F58563C0
S31500000AF8A3F224431A600123A7F8263407F5856371
S31500000B08A3F58363184640F214431A46002116F0EB
S31500000B189FFA012387F8253407F58563A3F21C435A
S31500000B281B68002B70D007F58563A3F584631B68E3
S31500000B38002B69D007F58563A3F224431B68002BB5
S31500000B4862D007F58563A3F5836307F58562A2F28C
S31500000B5824421268C3F8102407F58563A3F5836356
S31500000B684FF48072C3F8042207F58563A3F58363FF
S31500000B784FF48072C3F8002107F58563A3F58363F4
S31500000B884FF48072C3F8082307F58563A3F58363DA
S31500000B984FF48072C3F80C2407F1100207F5856339
S31500000BA8A3F21C431146186800F01AF90346A7F881
S31500000BB8263497F82534002B1FD0B7F82634002B97
S31500000BC812D1154800F0FCFA07F58563A3F583638F
S31500000BD8D3F80C3499B207F1100303F543700123D7
S31500000BE8012200F025FB08E0B7F8263419460B4821
S31500000BF800F0E6FA0023A7F8263407F58563A3F57F
S31500000C0884631B6805221A70B7F82634184607F558
S31500000C188567BD4680BD00BFB87D0100D87D01004F
S31500000C2880B584B000AF786039600123FB8100236A
S31500000C38BB817B68002B1DD03B68002B1AD0002394
S31500000C483B7300237B7307F10C03194678680AF097
S31500000C58ABFB0346FB81FB89002B03D1084800F058
S31500000C68AFFA04E0FB891946064800F0A9FA3B6882
S31500000C7807221A70FB8918461037BD4680BD00BF8B
S31500000C88007E0100287E010080B584B000AF786040
S31500000C9839600123FB810023BB817B68002B20D0B0
S31500000CA83B68002B1DD000233B7303237B7307F19E
S31500000CB80C03194678680AF077FB0346FB81FB8923
S31500000CC8002B06D1094800F07BFA3B6801221A700E
S31500000CD807E0FB891946064800F072FA3B680722C6
S31500000CE81A70FB8918461037BD4680BD607E010024
S31500000CF8987E010080B586B000AFF860B9607A606A
S31500000D080123FB82FB68002B30D0BB68002B2DD05B
S31500000D187B68002B2AD07B685B78022B05D11648A6
S31500000D2800F04EFABB6807221A707B685B78032BC3
S31500000D3808D1124800F044FAB968F86800F026F8B5
S31500000D480346FB827B685B78072B05D10C4800F0CD
S31500000D5837FA0C4B01221A607B685B78012B05D1A8
S31500000D68094800F02DFABB6807221A70FB8A184654
S31500000D781837BD4680BD00BFCC7E0100F87E010055
S31500000D88247F0100D46B0020407F010080B584B029
S31500000D9800AF786039600123FB817B68002B1AD08D
S31500000DA83B68002B17D04FF47A7178680AF068FC14
S31500000DB80346FB81FB89002B04D178680AF046FAC2
S31500000DC80346FB81FB89002BEDD1FB89002B02D161
S31500000DD83B6800221A70FB8918461037BD4680BD4D
S31500000DE880B5C4B000AF07F58873A3F5867318609D
S31500000DF807F58873A3F5887319600123A7F80E31E0
S31500000E0807F12C03E0220021184616F021F907F510
S31500000E188873A3F58273184620231A46002116F014
S31500000E2817F907F58873A3F586731B68002B00F07E
S31500000E388E8007F58873A3F588731B68002B00F06E
S31500000E48868007F58873A3F5827307F58872A2F57D
S31500000E58867212689A6107F58873A3F588731A680B
S31500000E6807F58873A3F582731A6007F58873A3F5E7
S31500000E7888731B68D3F8002107F58873A3F5827376
S31500000E885A6007F58873A3F588731B6803F58272A1
S31500000E9807F58873A3F582739A6007F58873A3F537
S31500000EA888731B68D3F8042207F58873A3F5827341
S31500000EB8DA6007F58873A3F588731B6803F5027271
S31500000EC807F58873A3F582731A6107F58873A3F586
S31500000ED888731B68D3F8082307F58873A3F582730C
S31500000EE85A6107F10C0207F12C031146184610F057
S31500000EF841FA0346A7F80E31B7F80E31002B26D172
S31500000F0807F12C03184610F0DDFB0346A7F80E314F
S31500000F18B7F80E31002B15D107F58873A3F588733A
S31500000F281B6803F5437107F58873A3F588731B6877
S31500000F3803F20C4207F12C03184610F00BFC03468B
S31500000F48A7F80E3107F12C03184610F073FBB7F813
S31500000F580E31184607F58877BD4680BD80B586B040
S31500000F6800AF786039600123FB820023FB60002311
S31500000F787B757B68002B00F0CA8007F10C031946C5
S31500000F8878680AF03DFE0346FB82FB8A002B40F098
S31500000F98BE80FB68D3F800333A689A4280F0B7807F
S31500000FA8FB68D3F80033002B00F0B180F9683A6883
S31500000FB813465B001344DB000B443B613B69002B83
S31500000FC800F0A3803B691B78032B5FD801A252F877
S31500000FD823F000BFED0F00003B1000005910000081
S31500000FE87710000039684C4800F0EAF84B4800F0E2
S31500000FF8E7F83B69581C00230022022100F018F983
S315000010083B69DB781946464800F0DAF8454800F0AF
S31500001018D7F83B69181D3B69DB781946002300227F
S3150000102800F006F93B699B7B19463F4800F0C8F873
S3150000103832E039683D4800F0C3F83D4800F0C0F892
S315000010483B69581C002300220D2100F0F1F823E02B
S315000010583968384800F0B4F8374800F0B1F83B6909
S31500001068581C00230022142100F0E2F814E0396825
S31500001078324800F0A5F8324800F0A2F83B69581C3F
S31500001088002300220A2100F0D3F805E001237B752E
S315000010982C4800F095F800BF7B7D002B32D1FB6809
S315000010A8D3F804333A699A422CD1FB6893F808338B
S315000010B8023B042B20D801A252F823F0D9100000D5
S315000010C8E1100000E9100000F9100000F11000001E
S315000010D81D4800F075F815E01C4800F071F811E09D
S315000010E81B4800F06DF80DE01A4800F069F809E0B1
S315000010F8194800F065F805E001237B75174800F0EC
S315000011085FF800BF164800F05BF80223FB82FB8AF3
S3150000111818461837BD4680BD7C7F01009C7F0100BC
S31500001128AC7F0100C07F0100CC7F0100DC7F01009D
S31500001138FC7F01000C8001002C8001003C8001002E
S315000011485C8001007080010098800100AC8001007D
S31500001158C0800100DC800100F88001000C810100DC
S315000011683481010080B485B000AF0346FB800123BB
S31500001178FB81FB88032B16D0032B17DBB3F5867F81
S3150000118814DCB3F5807F11DDA3F2011340F60112DA
S3150000119822FA03F303F00103002B14BF01230023F3
S315000011A8DBB2002B02D00023FB8102E0FB88FB8127
S315000011B800BFFB8918461437BD465DF8047B7047A7
S315000011C80FB480B5C2B000AF07F58A73C7F800310F
S315000011D83B464FF480720021184615F039FF384611
S315000011E8D7F80031D7F810214FF4807115F0F8FEC2
S315000011F80346C7F80431D7F80431FF2B09D907F598
S315000012088473A3F58473002283F8FF20FF23C7F8AD
S3150000121804313B46D7F80411184600F071F800BFB0
S3150000122807F58477BD46BDE8804004B070470000E6
S3150000123880B584B000AF7860084611461A46034662
S315000012487B800B467B7013463B707B68002B46D031
S315000012587B88002B43D00023FB8133E0FB89002BDE
S3150000126810D0F989204BA3FB0123DA0813469B000B
S3150000127813441A01D21A8B1A9BB2002B02D11B48AF
S31500001288FFF79EFF3B78002B08D1FB897A68134449
S315000012981B7819461648FFF793FF10E0FB897A6812
S315000012A813441B787B737B7B1F2B03D81148FFF7EE
S315000012B887FF04E07B7B19460F48FFF781FFFB8910
S315000012C80133FB81FA897B889A4202D2FB89FF2B7C
S315000012D8C4D97B78002B02D00848FFF771FF00BFFE
S315000012E81037BD4680BD00BFB5814E1B3881010051
S315000012F840810100488101004C81010050810100B4
S3150000130880B483B000AF7860396000BF0C37BD4643
S315000013185DF8047B704700002DE9B04F8CB000AF34
S3150000132878600123FB857B68002B00F0D8806F4826
S31500001338FFF746FF6E48FFF743FF6C48FFF740FF8D
S315000013480123FB760823FB7207F10B0307F10C0256
S31500001358F97E78680AF0B6F90346FB85FB8D002B03
S3150000136807D13B7B19467B7B1A46BB7B6148FFF757
S3150000137827FF0223FB760823FB7207F10B0307F10D
S315000013880C02F97E78680AF09DF90346FB85FB8D09
S31500001398002B06D17B7B19463B7B1A465648FFF73E
S315000013A80FFF0423FB760823FB7207F10B0307F1F3
S315000013B80C02F97E78680AF085F90346FB85FB8DF1
S315000013C8002B04D13B7B19464C48FFF7F9FE002356
S315000013D8FB760823FB7207F10B0307F10C02F97E73
S315000013E878680AF06FF90346FB85FB8D002B04D15C
S315000013F83B7B19464248FFF7E3FE0923FB760823A1
S31500001408FB7207F10B0307F10C02F97E78680AF004
S3150000141859F90346FB85FB8D002B3FD14FF000029F
S315000014284FF00003C7E908230023FB6123E007F117
S315000014380C02FB6913441B78DBB2002298469146DE
S31500001448FB69DB00A3F12001C3F1200209FA03F5C9
S3150000145808FA01F10D4328FA02F2154308FA03F4D3
S31500001468D7E9082342EA040A43EA050BC7E908ABA9
S31500001478FB690133FB61FB69072BD8DDD7E9080156
S315000014884FF000024FF000030A000023134603F052
S315000014980F033A6A19461B48FFF792FE0823FB76A4
S315000014A80823FB7207F10B0307F10C02F97E786833
S315000014B80AF008F90346FB85FB8D002B0AD13B7B16
S315000014C8002B01D0104B00E0104B7B617969104866
S315000014D8FFF776FE0548FFF773FE0023FB85FB8DB5
S315000014E818463037BD46BDE8B08F00BF54810100AD
S315000014F894810100D4810100008201002882010044
S315000015084C82010070820100988201009C820100D1
S31500001518A082010080B485B000AF786039600123ED
S31500001528FB817B68002B11D07B681B78022B0DD1C1
S315000015387B680A4AC3F820217B68094AC3F86422F3
S315000015487B680022C3F86C220023FB81FB891846BE
S315000015581437BD465DF8047B704700BFB11500001F
S315000015685917000080B485B000AF78600123FB816D
S315000015787B68002B11D07B681B78022B0DD17B680A
S315000015880022C3F820217B680022C3F864227B6806
S315000015980022C3F86C220023FB81FB891846143706
S315000015A8BD465DF8047B704780B586B000AFF8602D
S315000015B8B9607A603B600123BB82FB68002B71D05F
S315000015C8FB681B78022B6DD1BB68002B6AD07B6841
S315000015D8002B67D07B681B68002B63D007F11403C8
S315000015E87A68B968F86800F062F80346012B59D0A2
S315000015F8FB6898683B680022002109F067F90346F2
S31500001608BB82BB8A002B4DD10023FB740023BB741D
S31500001618FB689B68184609F0C3F8FB689B6807F1E6
S3150000162813020021184609F012FAFB689B6807F1B5
S3150000163812021146184609F01BF8FB7C012B07D04D
S31500001648BB7C002B04D1FB689B68184609F0BEF8E2
S31500001658FB689B68184609F08DF8FB7C012B02D0C5
S31500001668BB7C002BD4D0BB7C002B07D007F114031E
S315000016787A68B968F86800F01AF804E0FB6800228E
S315000016881A740323BB82FB689B680021184609F07D
S31500001698A9F90346FB82BB8A002B01D0BB8A00E06E
S315000016A8FB8ABB82BB8A18461837BD4680BD80B503
S315000016B886B000AFF860B9607A603B600123FB82B0
S315000016C800237B75FB68002B3DD0FB681B78022B3B
S315000016D839D1BB68002B36D07B68002B33D03B68EA
S315000016E8002B30D0FB6800221A74F86800F040FF1F
S315000016F80346FB82FB8A002B22D1FB681B7C012B4D
S315000017081ED1FB68D3F81C313B617B681B683A69BC
S315000017189A420DD8FB6812333A691946B86815F02B
S31500001728A7FC7B683A691A60FB6800221A7405E010
S3150000173840F20513FB827B6800221A6001237B7541
S315000017483B68FA8A1A807B7D18461837BD4680BDE5
S3150000175880B586B000AF78600123FB827B68002BDA
S3150000176800F097827B681B78022B40F092827B6898
S3150000177803F5B873FB60BA4B1B78FB72FB7A2B2B0D
S3150000178840F084820023FB82FB68F0220021184681
S3150000179815F05EFC00237B757A7DF96813465B00BD
S315000017A813449B000B440833AE4A1A60AE4B1B78B1
S315000017B87A7D1846F96813465B0013449B000B4470
S315000017C8043318607A7DF96813465B0013449B005E
S315000017D80B4420221A707B7D01337B7502233B6103
S315000017E842E23B69023B1B2B00F2248201A252F81B
S315000017F823F000BF6D1800009B180000C9180000F0
S31500001808F718000025190000531900008119000077
S31500001818AF190000DD1900000B1A0000391A000084
S31500001828CD1A00003D1C00003D1C00003D1C0000B8
S315000018383D1C0000291B0000571B0000851B0000EB
S315000018483D1C0000B31B0000E11B00000F1C00003C
S315000018583D1C00003D1C00003D1C00003D1C000016
S31500001868FB1A00007A7DF96813465B0013449B0057
S315000018780B4408337D4A1A607D4B1B787A7D1846DF
S31500001888F96813465B0013449B000B440433186045
S31500001898D3E17A7DF96813465B0013449B000B4439
S315000018A80833744A1A60744B1B787A7D1846F968AF
S315000018B813465B0013449B000B4404331860BCE1D9
S315000018C87A7DF96813465B0013449B000B44083382
S315000018D86A4A1A606A4B1B787A7D1846F968134675
S315000018E85B0013449B000B4404331860A5E17A7D22
S315000018F8F96813465B0013449B000B440833614A9E
S315000019081A60614B1B787A7D1846F96813465B00A6
S3150000191813449B000B44043318608EE17A7DF96802
S3150000192813465B0013449B000B440833574A1A605E
S31500001938574B1B787A7D1846F96813465B001344A3
S315000019489B000B440433186077E17A7DF9681346E7
S315000019585B0013449B000B4408334E4A1A604E4BF7
S315000019681B787A7D1846F96813465B0013449B007A
S315000019780B440433186060E17A7DF96813465B000E
S3150000198813449B000B440833444A1A60444B1B78A3
S315000019987A7D1846F96813465B0013449B000B448E
S315000019A80433186049E17A7DF96813465B001344ED
S315000019B89B000B4408333B4A1A603B4B1B787A7DE5
S315000019C81846F96813465B0013449B000B4404331E
S315000019D8186032E17A7DF96813465B0013449B0070
S315000019E80B440833314A1A60314B1B787A7D184606
S315000019F8F96813465B0013449B000B4404331860D4
S31500001A081BE17A7DF96813465B0013449B000B447F
S31500001A180833284A1A60284B1B787A7D1846F968D5
S31500001A2813465B0013449B000B440433186004E11F
S31500001A387A7DF96813465B0013449B000B44083310
S31500001A481E4A1A601E4B1B787A7D1846F96813469B
S31500001A585B0013449B000B4404331860EDE000BFA1
S31500001A686CE40100C002002081E40100900200201D
S31500001A787FE40100440000206EE4010074000020A9
S31500001A886FE40100A400002070E40100D4000020E7
S31500001A9871E401000401002072E401003401002011
S31500001AA873E401006401002074E40100940100203D
S31500001AB875E40100C401002076E40100F401002069
S31500001AC877E401007A7DF96813465B0013449B00AE
S31500001AD80B440833714A1A60714B1B787A7D184695
S31500001AE8F96813465B0013449B000B4404331860E3
S31500001AF8A3E07A7DF96813465B0013449B000B4408
S31500001B080833684A1A60684B1B787A7D1846F96864
S31500001B1813465B0013449B000B44043318608CE0A7
S31500001B287A7DF96813465B0013449B000B4408331F
S31500001B385E4A1A605E4B1B787A7D1846F96813462A
S31500001B485B0013449B000B440433186075E07A7DF0
S31500001B58F96813465B0013449B000B440833554A47
S31500001B681A60554B1B787A7D1846F96813465B0050
S31500001B7813449B000B44043318605EE07A7DF968D1
S31500001B8813465B0013449B000B4408334B4A1A6008
S31500001B984B4B1B787A7D1846F96813465B0013444D
S31500001BA89B000B440433186047E07A7DF9681346B6
S31500001BB85B0013449B000B440833424A1A60424BAD
S31500001BC81B787A7D1846F96813465B0013449B0018
S31500001BD80B440433186030E07A7DF96813465B00DD
S31500001BE813449B000B440833384A1A60384B1B7859
S31500001BF87A7D1846F96813465B0013449B000B442C
S31500001C080433186019E07A7DF96813465B001344BB
S31500001C189B000B4408332F4A1A602F4B1B787A7D9A
S31500001C281846F96813465B0013449B000B440433BB
S31500001C38186002E01023FB8200BFFB8A002B0ED13E
S31500001C487A7D3B69D8B2F96813465B0013449B005A
S31500001C580B4402461A707B7D01337B7501E0002335
S31500001C68FB823B6901333B613B69202B03DC7B7DAF
S31500001C78132B7FF6B6AD7B7D002B04D07A7DFB68EF
S31500001C88C3F8F02005E01023FB8202E04FF48373CB
S31500001C98FB82FB8A18461837BD4680BD2402002001
S31500001CA878E40100A002002080E40100540200202C
S31500001CB879E401005C0200207AE401006402002055
S31500001CC87BE401006C0200207CE40100780200201D
S31500001CD87DE40100840200207EE4010080B487B020
S31500001CE800AFF860B9607A600123FB82FB68002BBD
S31500001CF819D0FB681B78022B15D1BB68002B12D0B4
S31500001D087B68002B0FD002237B750A4B1A78BB68B9
S31500001D181A70BB680133084A12781A707B687A7D94
S31500001D281A700023FB82FB8A18461C37BD465DF8ED
S31500001D38047B70476CE401006DE4010080B586B051
S31500001D4800AF786039600123FB827B683B613B69A1
S31500001D58002B64D03B68002B61D03B685B68002B86
S31500001D685DD03B681B68002B59D03B68DB68002BAD
S31500001D7855D04FF46A720021386915F069F93B6944
S31500001D88002283F868223B69002283F869223B69AE
S31500001D98FF2283F86A223B685A683B699A603B6867
S31500001DA81A683B695A603B6900221A733B6902222A
S31500001DB81A7007F10C0304220021184615F048F999
S31500001DC83B689B68FB603B68DA683B69C3F8A423F9
S31500001DD807F10C0319463869FFF79CFB0346FB829B
S31500001DE8FB8A002B04D1386906F02CFA0346FB82DD
S31500001DF8FB8A002B0AD1386906F088FB0346FB826A
S31500001E08FB8A002B02D03869FFF7ACFBFB8A002B54
S31500001E1805D04FF46A720021386915F019F9FB8A62
S31500001E2818461837BD4680BD80B584B000AF7860C7
S31500001E380123FB817B68002B16D07B681B78022B5D
S31500001E4812D17868FFF78EFB0346FB81FB89002BCE
S31500001E580AD1786806F027FA0346FB814FF46A72BE
S31500001E680021786815F0F4F8FB8918461037BD4646
S31500001E7880BD80B584B000AF78600B46FB70012347
S31500001E88FB817B68002B39D07B681B78022B35D108
S31500001E9802237B73FB78002B02D0012B09D00EE0BE
S31500001EA87B685B680121184606F06EFF0346FB81D6
S31500001EB805E0786800F070F80346FB8100BFFB89EF
S31500001EC8002B0FD17B689B680121184608F0F6FDA8
S31500001ED80346FB81FB89002B04D1786800F013F8D0
S31500001EE80346FB817B7B013B7B73FB89002B05D07B
S31500001EF8FB78002B02D17B7B002BCBD1FB891846C4
S31500001F081037BD4680BD80B588B002AF7860012322
S31500001F18FB827B68002B3AD07B681B78022B36D174
S31500001F280723BB6007F1080207F10C019023009311
S31500001F384FF47A73786800F036F90346FB82FB8A19
S31500001F48002B05D13B7B902B02D04FF48073FB828C
S31500001F58FB8A002B1BD17A7B7B6883F89023BB7B9B
S31500001F681BB21B021AB2FB7B1BB213431BB29AB2FB
S31500001F787B68A3F892233B7C1BB21B021AB27B7CBC
S31500001F881BB213431BB29AB27B68A3F89423FB8A4D
S31500001F9818461837BD4680BD80B586B000AF786054
S31500001FA80123FB827B68002B2BD07B681B78022BD6
S31500001FB827D10A233B617B689B6800224FF4C161E5
S31500001FC8184608F0B3FB0346FB82FB8A002B07D1B1
S31500001FD87B689B683969184608F070FD0346FB82E2
S31500001FE87B689B6801224FF4C161184608F09EFB86
S31500001FF80346FB81FB8A002B01D1FB8900E0FB8AA3
S31500002008FB82FB8A18461837BD4680BD80B485B06A
S3150000201800AF786039600123FB817B68002B00F0F4
S315000020288B807B681B78022B40F086803B68002BF0
S3150000203800F082800A233B7300237B733B685B6A4C
S31500002048002B07D03B685A6A7B68C3F848217B7B1C
S3150000205801337B733B681B68002B07D03B681A6803
S315000020687B68C3F824217B7B01337B733B689B68C1
S31500002078002B07D03B689A687B68C3F82C217B7BCA
S3150000208801337B733B68DB68002B07D03B68DA6853
S315000020987B68C3F830217B7B01337B733B681B6904
S315000020A8002B07D03B681A697B68C3F834217B7B11
S315000020B801337B733B685B69002B07D03B685A6921
S315000020C87B68C3F838217B7B01337B733B689B694C
S315000020D8002B07D03B689A697B68C3F83C217B7B59
S315000020E801337B733B681B6A002B07D03B681A6A6F
S315000020F87B68C3F844217B7B01337B733B685B6851
S31500002108002B07D03B685A687B68C3F828217B7B7D
S3150000211801337B733B68DB69002B07D03B68DA69C0
S315000021287B68C3F840217B7B01337B733A7B7B7BDF
S315000021389A4201D10023FB81FB8918461437BD4614
S315000021485DF8047B704780B586B000AFF8607A60AA
S315000021583B600B467B810123FB82FB68002B1DD06D
S31500002168FB681B78022B19D1F86800F001FA0346C0
S31500002178FB82FB8A002B11D13B68B3F5847F0AD812
S31500002188FB6858687B89D9B23B687A6806F0E8FE2E
S315000021980346FB8202E04FF48073FB82FB8A1846F3
S315000021A81837BD4680BD90B589B000AFF860B960F4
S315000021B87A603B600123FB83FB68002B5ED0FB68DB
S315000021C81B78022B5AD1FB68D3F82031002B55D047
S315000021D8BB68002B52D000233B7797F83030FB764C
S315000021E87B681B687B617B687A691A60FB68D3F831
S315000021F820413B687A68B968F868A0470346FB83BC
S31500002208FB8B002B03D1BB681B787B7701E000238F
S315000022187B77FB8B002B04D0FB8B40F20512934295
S3150000222817D17A7FFB7E9A4213D0FB681B7B0E2B55
S3150000223803D14FF48573FB830BE0FB7E542B08D147
S315000022487B7F952B05D1FB681B7B022B01D10A23CB
S315000022583B773B7F01333B77FB8B002B04D0FB8B13
S3150000226840F20512934209D1FB7E002B06D07A7FF5
S31500002278FB7E9A4202D03B7F092BB4D9FB8B1846CA
S315000022882437BD4690BD000080B487B000AFF86023
S315000022987A603B600B46FB720123FB82FB68002BCE
S315000022A800F05F81FB681B78022B40F05A817B683F
S315000022B8002B00F056813B68012B40F252817B6867
S315000022C81B78472B02D10023FB8224E07B681B780E
S315000022D8532B15D17B6801331B78002B05D0002BB7
S315000022E80ADB123B022B07D802E00023FB8212E02E
S315000022F840F20113FB820EE04FF48073FB820AE082
S315000023087B6801331B78002B03D04FF48073FB8264
S3150000231801E00023FB82FB8A002B40F022817B68C8
S315000023281B787B754FF48073FB82FB7A013B0E2B7F
S3150000233800F2F88001A252F823F000BF9D230000A6
S31500002348B3230000C923000021240000372400001D
S31500002358812300000B240000612400007324000080
S31500002368AF240000EB24000003250000DF23000053
S31500002378F52300001B2500007B7D522B40F0D480FE
S315000023883B68022B40F0D080FB6803221A730023B7
S31500002398FB82C9E07B7D422B40F0C8803B68022B5C
S315000023A840F0C4800023FB82C0E07B7D432B40F0D5
S315000023B8BF803B68012B40F2BB800023FB82B7E05D
S315000023C87B7D442B40F0B6803B68022B40F0B28000
S315000023D80023FB82AEE07B7D472B40F0AD803B6857
S315000023E8012B40F2A9800023FB82A5E07B7D482BC8
S315000023F840F0A4803B680A2B40F0A0800023FB82B3
S315000024089CE07B7D512B40F09B803B68022B40F083
S3150000241897800023FB8293E07B7D532B40F09280CC
S315000024283B68012B40F28E800023FB828AE07B7D8D
S31500002438542B40F089803B68032B40F085803B6A2B
S31500002448002B06D07B689A783B6A1A700023FB82B9
S315000024587AE00123FB8277E07B7D562B76D13B68B9
S31500002468022B73D10023FB8270E07B7D722B6FD128
S315000024783B68022B6CD1FB681B7B052B05D1FB68DF
S315000024880C221A730023FB8262E0FB681B7B042B79
S3150000249805D1FB680B221A730023FB8258E04FF420
S315000024A88573FB8254E07B7D732B53D13B68022BEB
S315000024B850D1FB681B7B0C2B05D1FB6805221A73D0
S315000024C80023FB8246E0FB681B7B0B2B05D1FB68D0
S315000024D804221A730023FB823CE04FF48573FB82C7
S315000024E838E07B7D452B37D13B68022B34D1FB681E
S315000024F80D221A730023FB822EE07B7D462B2DD1FD
S315000025083B68022B2AD1FB6802221A730023FB823E
S3150000251824E07B7D552B23D13B68022B20D1002359
S31500002528FB821DE000BF1CE000BF1AE000BF18E0F8
S3150000253800BF16E000BF14E000BF12E000BF10E0C5
S3150000254800BF0EE000BF0CE000BF0AE000BF08E0D5
S3150000255800BF06E000BF04E000BF02E000BF00E0E5
S3150000256800BFFB8A18461C37BD465DF8047B7047DA
S3150000257880B5C6B000AF07F58C73A3F58A731860EB
S315000025880123A7F8163107F58C73A3F58A731B6820
S31500002598002B6ED007F58C73A3F58A731B681B781E
S315000025A8022B66D1002387F8153107F58C73A3F53E
S315000025B88A731B689B6807F215121146184608F0BD
S315000025C857F80346A7F81631B7F81631002B50D13D
S315000025D897F81531012B4CD10023A7F8123107F5CE
S315000025E88C73A3F58A731B685B6807F589721146B5
S315000025F8184606F0E9FC0346A7F81631B7F816316F
S31500002608002B2CD1B7F81231002B28D0B7F812318D
S31500002618B3F5847F23D807F58C73A3F58A731B68F3
S315000026285B68B7F8122107F10801184606F002FDA3
S315000026380346A7F81631B7F81631002B18D1B7F8A4
S3150000264812311A4607F1080107F58C73A3F58A7348
S31500002658186800F015F80346A7F8163108E0B7F829
S315000026681631002B05D14FF48073A7F8163100E018
S3150000267800BFB7F81631184607F58C77BD4680BDFA
S3150000268880B586B000AFF860B9607A600123FB8236
S31500002698FB68002B40D0FB681B78022B3CD1BB683B
S315000026A8002B39D07B68002B36D0BB681B7823F00B
S315000026B83F037B75FB6801221A74FB687A7D5A749E
S315000026C8FB687A68C3F81C21FB6812337A68B96814
S315000026D8184614F0CDFC7B7DC02B11D0C02B17DC1F
S315000026E8402B02D0802B03D012E00023FB8213E09C
S315000026F87A68B968F86800F015F80346FB820BE0BB
S315000027087A68B968F86800F033FA0346FB8203E092
S315000027184FF48073FB8200BFFB8A18461837BD4604
S3150000272880BD000080B5A6B000AFF860B9607A60D9
S315000027380123A7F89630FB68002B00F01282FB688D
S315000027481B78022B40F00D82BB68002B00F0098233
S315000027587B68002B00F00582BB681B78903B0F2B2B
S3150000276800F2ED8101A252F823F000BFB527000060
S31500002778FF2700006B28000021290000952900008A
S31500002788DD290000712A0000CD280000472B000033
S31500002798472B0000472B0000472B0000472B000063
S315000027A8472B0000472B0000272B00007B68052BD2
S315000027B806D9FB6801221A730023A7F8963003E0AE
S315000027C84FF48073A7F89630B7F89630002B40F090
S315000027D8BB81FB68D3F82431002B00F0B581FB6878
S315000027E8D3F82431FA68D2F84821104698470346A8
S315000027F8A7F89630A8E17B68022B14D1BB68013391
S315000028081B78012B03D1FB6809221A7307E0BB6802
S3150000281801331B78002B02D1FB6803221A730023AD
S31500002828A7F8963003E04FF48073A7F89630B7F808
S315000028389630002B40F08A81FB68D3F82831002BAC
S3150000284800F08481FB68D3F82831FA68D2F8480189
S31500002858BA6801321278114698470346A7F89630A7
S3150000286874E107F17C0318220021184614F0F0FBE6
S3150000287807F17C031A467968B86803F03FFC0346FB
S31500002888A7F89630B7F89630002B40F0618197F894
S315000028987C30012B02D1FB6804221A73FB68D3F83B
S315000028A82C31002B00F05481FB68D3F82C31FA68E0
S315000028B8D2F8482107F17C01104698470346A7F845
S315000028C8963045E17B68012B0BD10023A7F896309B
S315000028D8FB6893F89833052B07D1FB6802221A7315
S315000028E803E04FF48073A7F89630B7F89630002BBC
S315000028F840F03081FB68D3F83031002B00F02A8194
S31500002908FB68D3F83031FA68D2F848211046984760
S315000029180346A7F896301DE107F114035A22002151
S31500002928184614F095FB7B68022B0CD9BB68581C1B
S315000029387B68013B07F11402194601F0F1FD0346D5
S31500002948A7F8963003E04FF48073A7F89630B7F8E7
S315000029589630002B40F0008107F114031946F868F9
S3150000296800F08EF9FB68D3F83431002B00F0F480C0
S31500002978FB68D3F83431FA68D2F8482107F1140114
S31500002988104698470346A7F89630E5E007F178031E
S3150000299802220021184614F05BFB7B68032B0CD13E
S315000029A8BB68581C7B68013B07F17802194602F0A0
S315000029B8FDFF0346A7F8963003E04FF48073A7F8A7
S315000029C8963007F1960207F178031946F86800F081
S315000029D80FFBC6E007F1740301220021184614F024
S315000029E837FB7B68022B0CD1BB68581C7B68013B04
S315000029F807F17402194600F0D7FE0346A7F8963089
S31500002A0803E04FF48073A7F89630B7F89630002B9A
S31500002A1840F0A48097F87430082B0CD0082B0EDBF6
S31500002A28313B032B0BD8FB680E221A734FF48573C0
S31500002A38A7F8963004E0FB6802221A7300E000BF8C
S31500002A48FB68D3F83C31002B00F08880FB68D3F88C
S31500002A583C31FA68D2F8482107F1740110469847C4
S31500002A680346A7F8963079E007F1700301220021A2
S31500002A78184614F0EDFA7B68022B0CD1BB68581C7B
S31500002A887B68013B07F17002194605F085FD034690
S31500002A98A7F8963003E04FF48073A7F89630B7F896
S31500002AA89630002B5CD1FB681B7B0C2B06D1FB6890
S31500002AB805221A730023A7F896300EE0FB681B7BE5
S31500002AC80B2B06D1FB6804221A730023A7F896304D
S31500002AD803E04FF48573A7F89630FB68D3F84031C6
S31500002AE8002B3DD0B7F89630002B0DD1FB68D3F8F4
S31500002AF84031FA68D2F8482107F170011046984724
S31500002B080346A7F896302BE0FB68D3F84031FA68FD
S31500002B18D2F8482107F170011046984720E07B68F3
S31500002B28B3F5847F06D87B68002B03D00023A7F86B
S31500002B38963016E04FF48073A7F8963011E04FF4FC
S31500002B488073A7F896300CE000BF0AE000BF08E0E3
S31500002B5800BF06E000BF04E000BF02E000BF00E0DF
S31500002B6800BFB7F8963018469837BD4680BD00BFF7
S31500002B7880B588B000AFF860B9607A600123FB833E
S31500002B88FB68002B77D0FB681B78022B73D1BB68D8
S31500002B98002B70D07B68022B6DD90023FB8307F1CD
S31500002BA810030C220021184614F052FABB680133B0
S31500002BB81B785BB2002B05DA02233B74BB689B7853
S31500002BC8FB740AE001233B74BB689B78FB74FB7CAF
S31500002BD8002B02D0BB6803337B61BB6801331B78CB
S31500002BE803F00803DBB2002B02D00123BB7401E01B
S31500002BF80023BB74BB6801331B7803F01003DBB2F8
S31500002C08002B22D00323BB8301237B743B7C022B3E
S31500002C1805D1BB8BBA6813441B783B7617E0FB7C5F
S31500002C281A46BB8B13449BB20133BB83BB8B7A68B2
S31500002C389A4206D1BB8B013BBA6813441B783B7694
S31500002C4805E040F20B13FB8301E000237B74FB8B4A
S31500002C58002B10D1FB68D3F84431002B0BD0FB684E
S31500002C68D3F84431FA68D2F8482107F11001104622
S31500002C7898470346FB83FB8B18462037BD4680BD25
S31500002C8880B485B000AF786039603B681B78102B3C
S31500002C9813D93B681B78132B0FD83B685B7D042B35
S31500002CA803D03B685B7D062B03D17B680A221A7327
S31500002CB812E07B6807221A730EE03B685B7D042BE3
S31500002CC803D03B685B7D062B03D17B6805221A730C
S31500002CD802E07B6804221A733B685B7D042B49D1AA
S31500002CE83B681B78012B45D13B6893F82C30072BA2
S31500002CF83AD801A252F823F0212D00002B2D00000E
S31500002D08352D00003F2D0000492D0000532D0000F1
S31500002D185D2D0000672D00007B680D2283F86A226E
S31500002D2827E07B68152283F86A2222E07B681D2249
S31500002D3883F86A221DE07B68252283F86A2218E058
S31500002D487B682D2283F86A2213E07B683D2283F88C
S31500002D586A220EE07B685D2283F86A2209E07B68B6
S31500002D687D2283F86A2204E07B68FD2283F86A22C2
S31500002D7800BF36E13B685B7D042B4BD13B681B7873
S31500002D88022B47D13B68DB7A1B09DBB2072B3BD802
S31500002D9801A252F823F000BFC12D0000CB2D000080
S31500002DA8D52D0000DF2D0000E92D0000F32D0000D1
S31500002DB8FD2D0000072E00007B680D2283F86A228D
S31500002DC827E07B68152283F86A2222E07B681D22A9
S31500002DD883F86A221DE07B68252283F86A2218E0B8
S31500002DE87B682D2283F86A2213E07B683D2283F8EC
S31500002DF86A220EE07B685D2283F86A2209E07B6816
S31500002E087D2283F86A2204E07B68FD2283F86A2221
S31500002E1800BFE6E03B685B7D042B4BD13B681B7823
S31500002E28112B47D13B689B7D1B09DBB2072B3BD88F
S31500002E3801A252F823F000BF612E00006B2E00009D
S31500002E48752E00007F2E0000892E0000932E0000AC
S31500002E589D2E0000A72E00007B680D2283F86A22AB
S31500002E6827E07B68152283F86A2222E07B681D2208
S31500002E7883F86A221DE07B68252283F86A2218E017
S31500002E887B682D2283F86A2213E07B683D2283F84B
S31500002E986A220EE07B685D2283F86A2209E07B6875
S31500002EA87D2283F86A2204E07B68FD2283F86A2281
S31500002EB800BF96E03B685B7D042B4BD13B681B78D3
S31500002EC8122B47D13B685B7F03F00F03072B3BD8D8
S31500002ED801A252F823F000BF012F00000B2F0000BB
S31500002EE8152F00001F2F0000292F0000332F000088
S31500002EF83D2F0000472F00007B680D2283F86A22C9
S31500002F0827E07B68152283F86A2222E07B681D2267
S31500002F1883F86A221DE07B68252283F86A2218E076
S31500002F287B682D2283F86A2213E07B683D2283F8AA
S31500002F386A220EE07B685D2283F86A2209E07B68D4
S31500002F487D2283F86A2204E07B68FD2283F86A22E0
S31500002F5800BF46E03B685B7D062B3DD10023FB7333
S31500002F683B681B78152B04D13B6893F82630FB7316
S31500002F7812E03B681B78052B07D03B681B78132BA0
S31500002F8803D03B681B78112B04D13B6893F8583063
S31500002F98FB7301E0FF23FB73FB7B03F03003202B5D
S31500002FA810D0202B13DC002B02D0102B05D00EE0FE
S31500002FB87B683D2283F86A2213E07B687D2283F8CA
S31500002FC86A220EE07B68BD2283F86A2209E07B68E4
S31500002FD8FB2283F86A2204E07B68FF2283F86A22D0
S31500002FE800BF00BF1437BD465DF8047B704700BFBD
S31500002FF880B586B000AFF860B9607A600123FB82BD
S31500003008FB68002B63D0FB681B78022B5FD1BB687B
S31500003018002B5CD07B68002B59D07B681B88FB8211
S31500003028FB8A002B3DD1FB681B7B072B03D0FB6873
S315000030381B7B0A2B1CD1BB681B78042B03D1FB68AE
S3150000304803221A7318E0BB681B78032B03D1FB68AD
S3150000305809221A7310E0BB681B78022B03D1FB68A0
S3150000306808221A7308E0FB689A7BFB681A7303E068
S31500003078FB689A7BFB681A73FB68FD2283F86A2251
S31500003088FB68D3F83831002B1ED0FB68D3F83831EB
S31500003098FA68D2F84821B968104698470346FB8271
S315000030A812E0FB8A40F2011293420DD1FB68D3F875
S315000030B83831002B08D0FB68D3F83831FA68D2F8D3
S315000030C84821B968104698477B68FA8A1A8000BF73
S315000030D81837BD4680BD90B5D1B002AF07F59C74D0
S315000030E8A4F59674206007F59C70A0F598700160A9
S315000030F807F59C71A1F59A710A601A4607F59C7343
S31500003108A3F235131A700123A7F8363107F59C7315
S31500003118A3F596731B68002B1AD007F59C73A3F5C5
S3150000312896731B681B78022B12D107F59C73A3F5BF
S3150000313898731B68002B0BD007F59C73A3F5967341
S3150000314800220B21186805F0FAF80346A7F836316D
S31500003158B7F83631002B40F0E88007F59C73A3F5E5
S315000031689A731B68C7F830310023C7F82C3107F566
S315000031789C73A3F596731B6893F86A321A46D7F8B8
S315000031883031934228BF1346C7F8203107F59C73A0
S31500003198A3F596731B6893F86A321A46D7F8303146
S315000031A8934206D807F59C73A3F235131B78002BB8
S315000031B803D0012387F82B3102E0002387F82B314F
S315000031C807F59C73A3F59473C2221A7097F82B31EE
S315000031D8012B01D1082200E0002207F59C73A3F514
S315000031E894735A70D7F82031DAB207F59C73A3F5B1
S315000031F894739A7007F59C73A3F598731A68D7F8B1
S315000032082C31D11807F110030333D7F820211846BB
S3150000321813F02EFF0023C7F8243107F59C73A3F596
S3150000322896731B6893F86932002B21D00123C7F8DF
S31500003238243107F59C73A3F594735B7843F0100368
S31500003248DAB207F59C73A3F594735A7007F59C7365
S31500003258A3F596731B6893F86922D7F820310333D0
S3150000326802F00702D1B207F59C72A2F59472D15406
S31500003278D7F82021D7F824311344033307F1100275
S3150000328807F59C71A1F5967001210068FEF75BFFB2
S315000032980346A7F83631B7F83631002B27D197F809
S315000032A82B31012B23D10323C7F8183107F58C726C
S315000032B807F58E7107F59C73A3F5967000230093A6
S315000032C8D7F848310068FEF76EFF0346A7F836318F
S315000032D8B7F83631002B0AD1D7F8182107F58E73BF
S315000032E81146184600F018FA0346A7F83631D7F8FB
S315000032F83021D7F82031D31AC7F83031D7F82C2126
S31500003308D7F820311344C7F82C31B7F83631002BDB
S315000033180BD1D7F83031002B07D007F59C73A3F5EE
S315000033289A731B68002B7FF422AFB7F8363118461C
S3150000333807F59E77BD4690BD90B5CFB002AF07F5AD
S315000033489874A4F59274206007F59870A0F59470A7
S31500003358016007F59871A1F596710A6007F59872EC
S31500003368A2F5987213600123A7F82E3107F5987312
S31500003378A3F592731B68002B00F0C48007F59873B9
S31500003388A3F592731B681B78022B40F0BB8007F5E8
S315000033989873A3F594731B68002B00F0B38007F5A8
S315000033A89873A3F596731B68002B00F0AB8007F59E
S315000033B89873A3F596731B681B68002B00F0A28010
S315000033C84FF48473C7F81C310023C7F8283100234B
S315000033D887F82731002387F82D3107F59873A3F569
S315000033E8987307F58E7207F1140107F59870A0F522
S315000033F89270002400941B680068FEF7D4FE03460A
S31500003408A7F82E31B7F82E31002B1BD1D7F81C217F
S3150000341807F1140107F59873A3F59273186800F07D
S3150000342853F90346A7F82E31B7F82E3140F20912A0
S31500003438934204D0B7F82E31B3F5867F02D1012323
S3150000344887F82731B7F82E31002B03D097F82731A4
S31500003458012B3ED107F59873A3F58E739B78C7F8B1
S315000034682031D7F82821D7F820311A4407F5987360
S31500003478A3F596731B681B689A4226D8D7F820319D
S31500003488002B26D007F59873A3F594731A68D7F816
S315000034982831D01807F114030333D7F82021194629
S315000034A813F0E6FDD7F82821D7F820311344C7F8DA
S315000034B8283107F59873A3F58E735B78DB08DBB2C2
S315000034C803F0010387F82D3103E040F20513A7F84E
S315000034D82E31B7F82E31002B04D197F82D31012B58
S315000034E83FF478AFB7F82E31002B03D097F8273181
S315000034F8012B07D107F59873A3F596731B68D7F8C0
S3150000350828211A60B7F82E31184607F59A77BD466E
S3150000351890BD80B584B000AF78600B46FB70012380
S31500003528FB817B68002B0AD07B681B78022B06D1AF
S3150000353800220B21786804F002FF0346FB81FB8911
S31500003548002B18D1C2233B7280237B72FB78022B97
S3150000355802D8FB78BB7202E00123FB8100BFFB891E
S31500003568002B08D107F10802032301217868FEF72A
S31500003578EAFD0346FB81FB8918461037BD4680BD28
S3150000358880B489B000AFF860B9607A600123FB8324
S31500003598FB68002B6AD0FB681B78022B66D1BB68D8
S315000035A8002B63D07B68022B60D900237B7700232E
S315000035B8BB6100237B614FF48073FB83BB681B7878
S315000035C8C22B07D1BB6801331B785BB2002B01DB2A
S315000035D801237B777B7F002B16D0BB6801331B78D2
S315000035E803F01003002B01D00123BB61BB68023333
S315000035F81B781A46BB69134403337B617A697B6877
S315000036089A4201D10023FB83FB8B002B2ED1BB6989
S31500003618002B2BD07B69013BBA6813441B78FB74DB
S3150000362897F91330002B03DA40F20113FB831DE0F0
S31500003638FB7C03F04003DBB2002B02D040F20913F7
S31500003648FB83FB7C03F00703DBB2002B0ED0FB7C6D
S3150000365803F00703DAB2FB6883F86822FB8B40F2B3
S315000036680912934202D04FF48673FB83FB8B1846EC
S315000036782437BD465DF8047B704780B485B000AF3B
S31500003688786039600123FB817B68002B15D03B6885
S31500003698022B12D17B681B78952B0ED17B685B7841
S315000036A87B737B7B113B032B03D840F20113FB8111
S315000036B803E04FF48073FB8100BFFB89184614377B
S315000036C8BD465DF8047B704780B586B000AFF860EC
S315000036D8B9607A600123FB82FB68002B17D0FB6870
S315000036E81B78022B13D1BB68002B10D07B68022BEA
S315000036F807D97A68B968F868FFF742FF0346FB827C
S3150000370805E07968B868FFF7B8FF0346FB82FB8ACD
S3150000371818461837BD4680BD80B485B000AF7860BE
S3150000372839600123FB817B68002B36D03B68002B70
S3150000373833D000237B734FF48073FB817B681B783F
S31500003748C22B05D13B68DBB2032B01D101237B7366
S315000037587B7B002B12D13B68022B0FD17B681B7831
S31500003768952B0BD17B685B783B733B7B113B032B1B
S3150000377803D840F20113FB8100E000BF7B7B002BDE
S315000037880BD07B6801331B78802B06D17B6802330C
S315000037981B78002B01D10023FB81FB8918461437BF
S315000037A8BD465DF8047B704780B487B000AFF8600B
S315000037B8B9607A600123FB82FB68002B12D0BB68D4
S315000037C8002B0FD07B68002B0CD0BB68012B06D1D1
S315000037D8FB681A787B681A700023FB8202E04FF4B4
S315000037E88073FB82FB8A18461C37BD465DF8047B4E
S315000037F87047000080B586B000AFF8600B467A6067
S31500003808FB720123FB82FB68002B50D0FB681B78F8
S31500003818022B4CD1FB68B3F89233002B0AD1FB6814
S3150000382893F89033AA2B02D01A23FB820EE00023CA
S31500003838FB820BE0FB7A012B05D1F86800F0F1F862
S315000038480346FB8202E040F20713FB82FB8A002B49
S3150000385820D17B68002B1DD100233B6113E0164A5B
S315000038683B6952F82310154A3B6952F8232014483D
S315000038783B6950F82330F86800F078F80346FB8275
S315000038883B6901333B61FB8A002B0FD13B69032B54
S31500003898E5D90BE0FB8A002B09D17B68002B06D003
S315000038A87B68F86898470346FB8200E000BFFB8AFE
S315000038B818461837BD4680BDC48201003400002072
S315000038C85CE4010080B584B000AF786039600123FC
S315000038D8FB817B68002B41D07B681B78022B3DD18E
S315000038E87B685B680121184605F04EFA0346FB81A2
S315000038F8FB89002B04D17868FEF705FB0346FB819C
S31500003908FB89002B16D13B68002B13D1164B1B885D
S31500003918BB817B68B3F89233002B08D07B68B3F879
S315000039289233BA899A4202D10023FB810DE01B2308
S31500003938FB810AE0FB89002B07D13B68002B04D0EA
S315000039483B68786898470346FB81FB89002B05D1BD
S315000039587B689B680A21184607F0B0F8FB89184669
S315000039681037BD4680BD00BFC082010080B58AB051
S3150000397800AFF860B9607A603B600123FB84FB689E
S31500003988002B49D0FB681B78022B45D1BB68BB844A
S315000039987B683B624FF48473BB61BB695B08BB61A0
S315000039A83A68BB69B2FBF3F3FB610023FB8415E0BD
S315000039B8FB685868B98CBB693A6A05F016FA03467B
S315000039C8FB84BB699AB2BB8C1344BB84BB695B009E
S315000039D83A6A13443B62FB69013BFB61FB8C002B93
S315000039E802D1FB69002BE3D1FB8C002B14D13B6879
S315000039F8BA69B3FBF2F2B96901FB02F29B1A7B6161
S31500003A087B69002B08D0FB685868B98C7B693A6AD1
S31500003A1805F0EBF90346FB84FB8C18462837BD46B0
S31500003A2880BD80B586B000AF78600123FB827B68D5
S31500003A38002B43D07B681B78022B3FD17B685B68E1
S31500003A480221184605F0A0F90346FB82FB8A002BE3
S31500003A5810D145F6FF73BB820023FB8101233B612E
S31500003A687B68586807F10E02B98A3B6905F0BDF90B
S31500003A780346FB82FB8A002B07D17B685B68012122
S31500003A88184605F081F90346FB82FB8A002B04D110
S31500003A987868FEF738FA0346FB82FB8A002B0DD1BD
S31500003AA87B68B3F89233002B01D00223FB827B6834
S31500003AB893F89033AA2B01D01A23FB82FB8A184667
S31500003AC81837BD4680BD80B596B002AF7860012331
S31500003AD8A7F84E307B68002B0BD07B681B78022B2F
S31500003AE807D100220021786804F029FC0346A7F8CC
S31500003AF84E30B7F84E30002B40F06C82002387F822
S31500003B084D3007F10C0324220021184613F0A0FAC1
S31500003B1807F1380310220021184613F099FA7B683A
S31500003B2803F5A67307F138021946786800F058FAC3
S31500003B380346A7F84E30B7F84E30002B40F0D48134
S31500003B4897F84D3050333B44022203F8442C97F83B
S31500003B584D30013387F84D3097F84D307A6892F832
S31500003B684C2150333B4403F8442C97F84D3001332D
S31500003B7887F84D3097F84D307A6892F84D215033D2
S31500003B883B4403F8442C97F84D30013387F84D3001
S31500003B9897F84D307A6892F84E2150333B4403F833
S31500003BA8442C97F84D30013387F84D3097F84D304F
S31500003BB87A6892F84F2150333B4403F8442C97F81F
S31500003BC84D30013387F84D3097F84D3097F8382047
S31500003BD850333B4403F8442C97F84D30013387F8AB
S31500003BE84D307B8F1B0A9AB297F84D30D2B25033BC
S31500003BF83B4403F8442C97F84D30013387F84D3091
S31500003C087A8F97F84D30D2B250333B4403F8442CA0
S31500003C1897F84D30013387F84D30BB8F1B0A9AB29F
S31500003C2897F84D30D2B250333B4403F8442C97F8FA
S31500003C384D30013387F84D30BA8F97F84D30D2B2F0
S31500003C4850333B4403F8442C97F84D30013387F83A
S31500003C584D303B6C1A0E97F84D30D2B250333B4478
S31500003C6803F8442C97F84D30013387F84D303B6CF8
S31500003C781A0C97F84D30D2B250333B4403F8442C13
S31500003C8897F84D30013387F84D303B6C1A0A97F890
S31500003C984D30D2B250333B4403F8442C97F84D309C
S31500003CA8013387F84D303A6C97F84D30D2B250331D
S31500003CB83B4403F8442C97F84D30013387F84D30D0
S31500003CC87B68D3F858311A0E97F84D30D2B2503374
S31500003CD83B4403F8442C97F84D30013387F84D30B0
S31500003CE87B68D3F858311A0C97F84D30D2B2503356
S31500003CF83B4403F8442C97F84D30013387F84D3090
S31500003D087B68D3F858311A0A97F84D30D2B2503337
S31500003D183B4403F8442C97F84D30013387F84D306F
S31500003D287B68D3F8582197F84D30D2B250333B44CC
S31500003D3803F8442C97F84D30013387F84D307B6CE7
S31500003D481A0E97F84D30D2B250333B4403F8442C40
S31500003D5897F84D30013387F84D307B6C1A0C97F87D
S31500003D684D30D2B250333B4403F8442C97F84D30CB
S31500003D78013387F84D307B6C1A0A97F84D30D2B26A
S31500003D8850333B4403F8442C97F84D30013387F8F9
S31500003D984D307A6C97F84D30D2B250333B4403F825
S31500003DA8442C97F84D30013387F84D307B68D3F8AB
S31500003DB85C311A0E97F84D30D2B250333B4403F8B3
S31500003DC8442C97F84D30013387F84D307B68D3F88B
S31500003DD85C311A0C97F84D30D2B250333B4403F895
S31500003DE8442C97F84D30013387F84D307B68D3F86B
S31500003DF85C311A0A97F84D30D2B250333B4403F877
S31500003E08442C97F84D30013387F84D307B68D3F84A
S31500003E185C2197F84D30D2B250333B4403F8442C1A
S31500003E2897F84D30013387F84D307B68D3F8603109
S31500003E381A0E97F84D30D2B250333B4403F8442C4F
S31500003E4897F84D30013387F84D307B68D3F86031E9
S31500003E581A0C97F84D30D2B250333B4403F8442C31
S31500003E6897F84D30013387F84D307B68D3F86031C9
S31500003E781A0A97F84D30D2B250333B4403F8442C13
S31500003E8897F84D30013387F84D307B68D3F86021B9
S31500003E9897F84D30D2B250333B4403F8442C97F888
S31500003EA84D30013387F84D30002387F84C30002316
S31500003EB887F84B3097F84D3050333B4497F84C20F1
S31500003EC803F8442C97F84D30013387F84D3097F8AE
S31500003ED84D3050333B4497F84B2003F8442C97F861
S31500003EE84D30013387F84D30B7F84E30002B36D1B8
S31500003EF8002387F84A3097F84D3050333B4497F8FB
S31500003F084A2003F8442C97F84D30013387F84D3092
S31500003F1897F84D307A6892F8682150333B4403F895
S31500003F28442C97F84D30013387F84D3097F84D30CB
S31500003F387A6892F8692150333B4403F8442C97F881
S31500003F484D30013387F84D3097F84D3007F10C02A4
S31500003F5800217868FEF7F7F80346A7F84E30B7F859
S31500003F684E30002B36D102233B6307F1340302227D
S31500003F780021184613F06CF807F1300207F13401F6
S31500003F88422300934FF47A737868FEF70CF90346D8
S31500003F98A7F84E30B7F84E30002B0BD13B6B07F124
S31500003FA834020021009101217868FEF76DF9034675
S31500003FB8A7F84E30B7F84E30002B0BD197F83530AE
S31500003FC8002B03D17B6802221A7303E04FF4807337
S31500003FD8A7F84E30B7F84E3018465037BD4680BD64
S31500003FE880B588B000AFF860B9607A600123FB83BA
S31500003FF8FB68002B00F08F80FB681B78022B40F0D3
S315000040088A80BB68002B00F086807B68002B00F056
S315000040188280BB685B68444A93427CD3BB685B6812
S31500004028424A934277D8BB685B68BB61BB685B68EA
S315000040383F4A934205D97B6801221A70BB695B081F
S31500004048BB61BB689B681B0207EE903AF8EE677A7D
S31500004058C7ED057ABB6907EE903AB8EE677AD7EDF1
S31500004068056AC6EE877AC7ED047AD7ED047A9FED1E
S31500004078317A67EE877AFCEEE77A17EE902A7B6844
S315000040889A607B689A68BB689B691A447B68DA60A1
S31500004098B86912F0E3FA22A3D3E9002312F082FCEE
S315000040A802460B46104619464FF00002224B12F004
S315000040B84FFB02460B46104619464FF000021F4BAF
S315000040C812F090F902460B461046194612F052FDB8
S315000040D803469AB27B685A807B685B8807EE903AFB
S315000040E8B8EE677AD7ED047A27EE277ADFED146AF9
S315000040F8C7EE267AB6EE007A77EE877AC7ED047AA7
S31500004108D7ED047AFCEEE77A17EE903A9AB27B6816
S315000041189A800023FB83FB8B18462037BD4680BD5B
S315000041280000000080842E41C0E8CE0000A33B03B7
S3150000413880D19D010000804A000050400000E03F09
S315000041480000804280B58AB002AF786039600123EA
S31500004158FB837B68002B0DD07B681B78022B09D16B
S315000041683B68002B06D000220F21786804F0E7F898
S315000041780346FB83FB8B002B40F094800C22002126
S31500004188386812F065FF00237B777B7F20333B443A
S31500004198082203F8042C7B7F01337B777B7F07F1AA
S315000041A81C0200217868FDF7CEFF0346FB83FB8BD4
S315000041B8002B77D10A23FB60FA6807F11003002168
S315000041C8184612F045FF07F10C0207F110014823C3
S315000041D800934FF47A737868FDF7E5FF0346FB838F
S315000041E8FB8B002B0AD1FB6807F110020021009116
S315000041F80E217868FEF748F80346FB83FB8B002BF5
S3150000420850D102237B777B7F20333B4413F8102C55
S315000042183B681A707B7F01337B777B7F20333B4477
S3150000422813F8103C1B0403F47F027B7F0133203311
S315000042383B4413F8103C1B029BB213437A7F0232AD
S3150000424820323A4412F8102C1A433B685A607B7F96
S3150000425803337B777B7F20333B4413F8102C3B6872
S315000042681A727B7F01337B777B7F20333B4413F8BD
S31500004278102C3B685A727B7F01337B777B7F203318
S315000042883B4413F8103C1BB21B021AB27B7F013366
S3150000429820333B4413F8103C1BB213431BB29AB2AB
S315000042A83B685A81FB8B18462037BD4680BD000007
S315000042B8F0B587B000AFF8607A603B600B46FB72DA
S315000042C80123FB82FB68002B00F0B780FB681B7894
S315000042D8022B40F0B2807B68002B00F0AE803B6872
S315000042E8002B00F0AA800023FB82FB7A082B00F241
S315000042F8A18001A252F823F0254300009D43000047
S3150000430837430000454300006B4300008D4300001F
S31500004318BB430000E1430000F3430000FB6893F849
S3150000432890237B681A703B6801221A7085E07B68C7
S3150000433800221A703B6801221A707EE0FB68B3F807
S315000043489233DAB27B681A70FB68B3F892331B0AA9
S315000043589AB27B680133D2B21A703B6802221A708D
S315000043686BE03B4B1B88DAB27B681A70384B1B88AC
S315000043781B0A9AB27B680133D2B21A703B680222D2
S315000043881A705AE03A687968F868FDF7A7FC034698
S31500004398FB8252E07B6801221A707B680133022295
S315000043A81A707B68023301221A703B6803221A705E
S315000043B843E0FB68B3F89433DAB27B681A70FB689B
S315000043C8B3F894331B0A9AB27B680133D2B21A70D7
S315000043D83B6802221A7030E0FB6893F86A227B6811
S315000043E81A703B6801221A7027E000237B751AE0D1
S315000043F87B7DD90014A3D3E90023C1F12006A1F1DE
S31500004408200022FA01F403FA06F6344323FA00F0F0
S31500004418044323FA01F57B7D7A681344E2B21A70E5
S315000044287B7D01337B757B7D072BE1D93B680822B1
S315000044381A7002E00123FB8200BFFB8A18461C376C
S31500004448BD46F0BDAFF30080806584FE090000001C
S31500004458C282010080B586B000AFF860B9607A60A4
S315000044680123FB82FB68002B10D0FB681B78022B0C
S315000044780CD1BB68002B09D07B68002B06D0002224
S315000044880621F86803F05BFF0346FB82FB8A002BD4
S3150000449840D1BB681B78012B06D1BB68DB7B022B9E
S315000044A802D1BB6801225A707A68B968F86800F0C8
S315000044B89FF80346FB82FB8A002B2BD00023FB8246
S315000044C8BB681B78013B032B16D801A252F823F0D0
S315000044D8E9440000F1440000F944000007450000E3
S315000044E8BB6801225A700BE0BB6801225A7007E0CC
S315000044F8BB6801225A7003E00123FB8200E000BF7B
S31500004508FB8A002B06D17A68B968F86800F070F85B
S315000045180346FB82FB8A18461837BD4680BD00BF96
S3150000452880B586B000AFF860B9607A600123FB8277
S31500004538FB68002B57D0BB68002B54D07B68002B38
S3150000454851D000237B757B7D1A46FB6813441A7885
S315000045587B681A707B7D0133DBB27B7507F1150327
S315000045687A681946F86800F005FE0346FB82FB8A5E
S31500004578002B13D17B7D1A46FB6813441A787B6897
S315000045885A757B7D0133DBB27B7507F115027B68B3
S31500004598B968F86800F0AEFD0346FB82FB8A002B7B
S315000045A816D17B681B78132B02DC112B02DA0EE07E
S315000045B8152B0CD17B7D1A46FB6813441A787B6849
S315000045C883F859207B7D0133DBB27B7500E000BFA1
S315000045D8FB8A002B07D17B7D1A46BB68934202D023
S315000045E84FF48073FB82FB8A18461837BD4680BD98
S315000045F890B5A7B002AFF860B9607A600123A7F852
S315000046088E300F2387F88D3007F16003C7F888309E
S31500004618D7F8883013221A70D7F888300133C7F8CC
S315000046288830BB681A78D7F888301A70D7F8883077
S315000046380133C7F88830BB681B78013B032B00F2AF
S31500004648908001A252F823F061460000CB46000094
S315000046580D47000063470000BB685A78D7F88830D2
S315000046681A70D7F888300133C7F88830BB689B784A
S3150000467887F8853097F885300A2B1DD8D7F8883003
S3150000468897F885201A70D7F888300133C7F888302C
S31500004698BB68033397F885201946D7F8880012F0C7
S315000046A8E7FC97F88530D7F888201344C7F8883090
S315000046B80023A7F88E3058E04FF48073A7F88E30A1
S315000046C853E0BB685A78D7F888301A70D7F888301C
S315000046D80133C7F888300D2387F88630BB68023364
S315000046E897F886201946D7F8880012F0C1FC97F883
S315000046F88630D7F888201344C7F888300023A7F8EF
S315000047088E3032E0BB689A78D7F888301A70D7F8B6
S3150000471888300133C7F88830BB685A78D7F88830AC
S315000047281A70D7F888300133C7F88830082387F815
S315000047388730BB68033397F887201946D7F888006F
S3150000474812F096FC97F88730D7F888201344C7F8F4
S3150000475888300023A7F88E3007E00023A7F88E30AC
S3150000476803E00123A7F88E3000BFB7F88E30002B80
S315000047787AD1BB68DA7BD7F888301A70D7F88830D0
S315000047880133C7F88830BB68DB7B042B02D0062BC5
S3150000479835D069E0BB681A7CD7F888301A70D7F824
S315000047A888300133C7F88830BB685B7C87F883306C
S315000047B897F883300F2B1AD8D7F8883097F88320C4
S315000047C81A70D7F888300133C7F88830BB681233B7
S315000047D897F883201946D7F8880012F049FC97F80D
S315000047E88330D7F888201344C7F8883003E04FF49D
S315000047F88073A7F88E30052387F88D3034E0BB68C0
S315000048081A7CD7F888301A70D7F888300133C7F879
S315000048188830BB685B7C87F8843097F884300F2B28
S315000048281AD8D7F8883097F884201A70D7F88830BD
S315000048380133C7F88830BB68123397F884201946C5
S31500004848D7F8880012F014FC97F88430D7F8882037
S315000048581344C7F8883003E04FF48073A7F88E3006
S31500004868052387F88D3000BFB7F88E30002B0DD1A1
S3150000487807F16003D7F88820D31A07F160020021F0
S31500004888F868FDF760FC0346A7F88E30B7F88E3057
S31500004898002B41D14523FB6507F15C0207F11401A2
S315000048A8532300934FF47A73F868FDF77CFC0346AC
S315000048B8A7F88E30B7F88E30002B0BD1FB6D07F1B9
S315000048C81402002100910421F868FDF7DDFC034677
S315000048D8A7F88E30B7F88E30002B0ED1F96DBB686D
S315000048E81A78BB68DC7B07F114007B6800932346C3
S315000048F800F030F90346A7F88E30B7F88E30002B53
S315000049080AD197F88D30052B06D1FB681B7B042B43
S3150000491802D1FB6805221A73B7F88E301846943709
S31500004928BD4690BD80B588B000AFF860B9607A60C2
S315000049384FF48073FB83FB68002B38D0BB68002BD1
S3150000494835D07B68002B32D001233B7700237B7759
S31500004958BB68142B13D9BB68442B10D8FB680233E9
S315000049681B781A463B7F13440233BB61BA68BB699E
S315000049789A4204D1FB689B787B770023FB83FB8BE9
S31500004988002B14D10223FB757868FB7DFA68134463
S315000049987A7F194612F06CFBFA7D7B7F1344FB7510
S315000049A8FB7DFA6813441A787B6883F84120FB8BF1
S315000049B818462037BD4680BD80B58AB000AFF8607E
S315000049C8B9607A604FF48073FB84FB68002B63D070
S315000049D8BB68002B60D07B68002B5DD0012387F86D
S315000049E82530BB68032B11D9BB68182B0ED8FB687A
S315000049F802331B781A4697F82530134402333B6274
S31500004A08BA683B6A9A4201D10023FB84FB8C002BCF
S31500004A1842D1FB689B78FB77FB7F012B12D1FB7F8A
S31500004A2802337B617B6815220021184612F010FBC1
S31500004A38FA687B6913441A787B685A757B6808227A
S31500004A489A7529E0FB7F012B23D9FB7F152B20D8EC
S31500004A580223BB617868FA68BB691344FA7F194672
S31500004A6812F006FBBB69DAB2FB7F1344DBB2BB610B
S31500004A78FA68BB6913441A787B685A75BB690133AF
S31500004A88BB617B685B7803F00F03DAB27B689A75C3
S31500004A9802E04FF48073FB84FB8C18462837BD462A
S31500004AA880BD80B588B000AFF860B9607A604FF411
S31500004AB88073FB83FB68002B47D0BB68002B44D070
S31500004AC87B68002B41D005233B770423FB76002324
S31500004AD87B77BB68052B12D9BB68152B0FD8FB7ED5
S31500004AE8FA6813441B787B773A7F7B7F1A44BB6846
S31500004AF89A4204D17B7F102B01D80023FB83FB8BC2
S31500004B08002B22D102237B61FA687B6913441A7849
S31500004B187B681A707B6901337B61FA687B69134489
S31500004B281A787B685A707B6901337B617B687A7F68
S31500004B389A707B6901337B617B68D81CFA687B694C
S31500004B4813447A7F194612F093FAFB8B18462037DE
S31500004B58BD4680BD80B586B000AFF860B960114625
S31500004B681A460B46FB711346BB714FF48073FB82E2
S31500004B78FB68002B32D0BB68002B2FD03B6A002B7A
S31500004B882CD0BB79042B02D0062B16D01DE0FB795E
S31500004B98012B07D13A6AB968F868FFF70DFF034693
S31500004BA8FB8218E0FB79022B15D13A6AB968F868D6
S31500004BB8FFF777FF0346FB820DE03A6AB968F868A3
S31500004BC8FFF7B0FE0346FB8208E0BB68022B04D160
S31500004BD80023FB8201E000BF00E000BFFB8A184605
S31500004BE81837BD4680BD80B489B000AFF860B9609B
S31500004BF83B601346FB714FF48073FB83FB68002B05
S31500004C0800F09A80BB68002B00F096803B68002B6A
S31500004C1800F09280FB797B77FB79BB613B685B7D13
S31500004C28042B43D13B681B78012B12D17B7FFA6892
S31500004C3813441B783B753B7DBA691344BB61BB695A
S31500004C480133BB61BA69BB689A4275D80023FB83F6
S31500004C5872E03B681B78022B19D100237B75BB6970
S31500004C680333BB61BA69BB689A4265D87B7F023356
S31500004C78FA6813441B787B757B7DBA691344BB615C
S31500004C88BA69BB689A4257D80023FB8354E03B684D
S31500004C981B78112B03D03B681B78122B4CD1BA69B1
S31500004CA8BB689A4248D80023FB8345E03B685B7D96
S31500004CB8062B3DD13B681B78012B07D03B681B7838
S31500004CC8032B03D03B681B78052B12D17B7FFA6830
S31500004CD813441B78BB75BB7DBA691344BB61BB69BA
S31500004CE80133BB61BA69BB689A4224D80023FB83A7
S31500004CF821E03B681B78112B07D03B681B78132BE8
S31500004D0803D03B681B78152B16D17B7FFA681344B2
S31500004D181B78FB75FB7DBA691344BB61BB6902331B
S31500004D28BB61BA69BB689A4206D80023FB8303E0D5
S31500004D380023FB8300E000BFFB8B18462437BD46E3
S31500004D485DF8047B7047000080B586B000AFF86058
S31500004D58B9607A603B604FF48073FB82FB68002B76
S31500004D6800F01081BB68002B00F00C817B68002BDB
S31500004D7800F008813B68002B00F004817B681B78F3
S31500004D887B757A7D3B68B968F868FFF72CFF0346A0
S31500004D98FB82FB8A002B40F0F2804FF48073FB8283
S31500004DA83B681B78013B112B00F2E28001A252F806
S31500004DB823F000BF054E0000A34E0000794F000007
S31500004DC8794F0000794F0000794F0000794F0000B5
S31500004DD8794F0000794F0000794F0000794F0000A5
S31500004DE8794F0000794F0000794F0000794F000095
S31500004DF8794F00000B4F0000354F00007B7DFA68A5
S31500004E0813441B78BB74BB7C012B1BD13B68163340
S31500004E1815220021184612F01BF97A7DBB7C134433
S31500004E287B757B7DFA6813441A783B6883F82B20D8
S31500004E387B7D01337B753B68082283F82C20002391
S31500004E48FB8297E0BB7C012B40F29480BB7C152B40
S31500004E5800F290803B6803F116007B7DFA681344E4
S31500004E68BA7C194612F004F97A7DBB7C13447B752B
S31500004E787B7DFA6813441A783B6883F82B207B7D80
S31500004E8801337B753B68DB7D03F00F03DAB23B68C1
S31500004E9883F82C200023FB826CE07B7DFA681344A0
S31500004EA81A783B689A757B7D01337B757B7DFA683A
S31500004EB813441A783B68DA757B7D01337B757B7DF5
S31500004EC8FA6813441B78FB747B7D01337B75FB7C86
S31500004ED8002B51D0FB7C102B4ED83B68FA7C1A76F7
S31500004EE83B6803F119007B7DFA681344FA7C19467E
S31500004EF812F0BEF87A7DFB7C13447B750023FB8297
S31500004F083AE07B7DFA6813441A783B689A757B7D8C
S31500004F1801337B757B7DFA6813441A783B68DA752A
S31500004F287B7D01337B750023FB8228E07B7DFA6855
S31500004F3813441B783B757B7D01337B753B7D002BCA
S31500004F481CD03B7D182B19D83B683A7D9A753B686F
S31500004F5803F117007B7DFA6813443A7D194612F06F
S31500004F6887F87A7D3B7D13447B750023FB8205E039
S31500004F7800BF04E000BF02E000BF00E000BF7B689E
S31500004F887A7D1A70FB8A18461837BD4680BD00BF61
S31500004F9880B586B000AFF860B9607A603B604FF4C0
S31500004FA88073FB82FB68002B00F09F80BB68002B98
S31500004FB800F09B807B68002B00F097803B68002BF5
S31500004FC800F093807B681B787B757A7D3B68B968AF
S31500004FD8F868FFF708FE0346FB82FB8A002B40F0C1
S31500004FE881804FF48073FB823B681B78152B8CBF3E
S31500004FF801220022D2B2002A6FD1012202FA03F35B
S3150000500803F42812002A14BF01220022D2B2002A71
S315000050182BD103F02A03002B14BF01230023DBB294
S31500005028002B5AD07B7DFA6813441B78FB74FB7CF3
S31500005038412B54D83B6803F116007B7DFA6813446C
S31500005048FA7C194612F014F87A7DFB7C13447B75BA
S315000050587B7DFA6813441A783B6883F857207B7D72
S3150000506801337B750023FB8239E07B7DFA681344A4
S315000050781B783B753B7D412B33D83B6803F1160003
S315000050887B7DFA6813443A7D194611F0F1FF7A7D63
S315000050983B7D13447B757B7DFA6813441A783B681D
S315000050A883F857207B7D01337B757B7DFA68134433
S315000050B81A783B6883F858207B7D01337B753B68FB
S315000050C893F85830FF2B05D13B6893F826203B68A8
S315000050D883F858200023FB8203E000BF02E000BFEC
S315000050E800E000BF7B687A7D1A70FB8A184618377D
S315000050F8BD4680BD80B586B000AFF860B9607A60FD
S315000051083B604FF48073FB82FB68002B2CD0BB6896
S31500005118002B29D07B68002B26D03B68002B23D098
S315000051287B681B787B753B685B7D042B02D0062B5E
S315000051380AD013E007F115023B68B968F868FFF76B
S3150000514803FE0346FB820CE007F115023B68B968CB
S31500005158F868FFF71DFF0346FB8202E00023FB8287
S3150000516800BF7A7D7B681A70FB8A18461837BD46D9
S3150000517880BD000080B586B000AFF860B9607A607F
S315000051884FF48073FB82FB68002B00F0C880BB6875
S31500005198002B00F0C4807B68002B00F0C080BB6841
S315000051A81B787B757B681B78013B142B00F2AF805C
S315000051B801A252F823F000BF1552000093520000D6
S315000051C8B7520000ED5200001153000017530000BB
S315000051D81753000017530000175300001753000019
S315000051E81753000017530000175300001753000009
S315000051F81753000017530000115300001153000005
S315000052081153000017530000115300007B7DFA6804
S3150000521813441A787B685A707B7D01337B757B7DD6
S31500005228FA6813441A787B689A707B7D01337B751C
S315000052387B7DFA6813441B787B747B7D01337B7511
S315000052487B7C042B05D07B7C072B02D07B7C0A2B2E
S315000052585FD17B687A7CDA707B68181D7B7DFA687B
S3150000526813447A7C194611F003FF7A7D7B7C13443C
S315000052787B757B7DFA6813441A787B689A737B7D05
S3150000528801337B750023FB8243E00D23BB747B68E7
S31500005298581C7B7DFA681344BA7C194611F0E8FE5F
S315000052A87A7DBB7C13447B750023FB8234E07B7DCF
S315000052B8FA6813441B78FB74FB7C122B02D0FB7C28
S315000052C8142B28D17B68581C7B7DFA681344FA7C1A
S315000052D8194611F0CDFE7A7DFB7C13447B750023BD
S315000052E8FB8218E00A233B757B68581C7B7DFA68AD
S315000052F813443A7D194611F0BBFE7A7D3B7D134473
S315000053087B750023FB8207E00023FB8204E000BFD5
S3150000531802E000BF00E000BFBB687A7D1A70FB8A16
S3150000532818461837BD4680BD80B586B000AFF86010
S31500005338B9607A600123FB82FB68002B0AD0FB6800
S315000053481B78022B06D100220321F86802F0F7FF2A
S315000053580346FB82FB8A002B4AD10223FB82BB68E9
S31500005368002B30D17B68002B2DD1FB68D3F8643233
S31500005378002B07D0FB68D3F86432F86898470346D1
S31500005388FB8201E00123FB82FB8A002B30D1FB68FC
S31500005398D3F86032002B13D0FB68D3F86032142B95
S315000053A80ED8FB6803F5B871FB68D3F86032DBB238
S315000053B81A46F86800F0CCF80346FB8200BF17E0EF
S315000053C80223FB8214E0BB68002B0FD07B68002BFE
S315000053D80CD07B68142B09D87B68DBB21A46B968EF
S315000053E8F86800F0B5F80346FB8201E00123FB826A
S315000053F8FB8A18461837BD4680BD000080B487B0C2
S3150000540800AF0346FB710023FB7500237B75002361
S315000054183B750023FB740023BB7402237B750D23A5
S315000054283B751223FB741D23BB74FA797B7D9A4264
S3150000543806D3FA793B7D9A4202D80123FB752FE001
S31500005448FA79FB7C9A4226D3FA79BB7C9A4222D80F
S315000054580123FB7505237B74154A07F10C0392E8B3
S3150000546803001860043319700023BB750EE0BB7D7A
S3150000547818333B4413F80C3CFA799A4203D10023BB
S31500005488FB7500BF0CE0BB7D0133BB75BA7D7B7C29
S315000054989A42ECD304E0FB79202B01D10123FB755A
S315000054A8FB7D18461C37BD465DF8047B704700BF78
S315000054B884E4010080B586B000AFF860B9607A6010
S315000054C80223FB82BB681B683B613B69002B07D143
S315000054D8FA683B69134411221A703B6901333B6130
S315000054E87B685A683B6913440233B3F5847F1AD83C
